{
  "contractName": "BlockChanger",
  "abi": [
    {
      "constant": false,
      "inputs": [
        {
          "name": "_address",
          "type": "address"
        },
        {
          "name": "_username",
          "type": "string"
        },
        {
          "name": "_password",
          "type": "string"
        }
      ],
      "name": "pushAdminInfo",
      "outputs": [],
      "payable": false,
      "stateMutability": "nonpayable",
      "type": "function"
    },
    {
      "constant": true,
      "inputs": [],
      "name": "checkIsAdded",
      "outputs": [
        {
          "name": "",
          "type": "bool"
        }
      ],
      "payable": false,
      "stateMutability": "view",
      "type": "function"
    },
    {
      "constant": false,
      "inputs": [
        {
          "name": "_address",
          "type": "address"
        },
        {
          "name": "_username",
          "type": "string"
        },
        {
          "name": "_password",
          "type": "string"
        }
      ],
      "name": "loginUser",
      "outputs": [],
      "payable": false,
      "stateMutability": "nonpayable",
      "type": "function"
    },
    {
      "constant": true,
      "inputs": [],
      "name": "checkAdminIsLoggedIn",
      "outputs": [
        {
          "name": "",
          "type": "bool"
        }
      ],
      "payable": false,
      "stateMutability": "view",
      "type": "function"
    },
    {
      "constant": false,
      "inputs": [],
      "name": "logout",
      "outputs": [],
      "payable": false,
      "stateMutability": "nonpayable",
      "type": "function"
    },
    {
      "constant": false,
      "inputs": [
        {
          "name": "_addr",
          "type": "address"
        },
        {
          "name": "_name",
          "type": "string"
        },
        {
          "name": "_hash_id",
          "type": "string"
        },
        {
          "name": "_ip",
          "type": "string"
        },
        {
          "name": "_mac",
          "type": "string"
        }
      ],
      "name": "add_device",
      "outputs": [],
      "payable": false,
      "stateMutability": "nonpayable",
      "type": "function"
    },
    {
      "constant": true,
      "inputs": [],
      "name": "getCount",
      "outputs": [
        {
          "name": "",
          "type": "uint256"
        }
      ],
      "payable": false,
      "stateMutability": "view",
      "type": "function"
    },
    {
      "constant": true,
      "inputs": [
        {
          "name": "_addr",
          "type": "address"
        }
      ],
      "name": "displayInfo",
      "outputs": [
        {
          "name": "",
          "type": "address"
        },
        {
          "name": "",
          "type": "string"
        },
        {
          "name": "",
          "type": "string"
        },
        {
          "name": "",
          "type": "string"
        },
        {
          "name": "",
          "type": "string"
        },
        {
          "name": "",
          "type": "uint8"
        }
      ],
      "payable": false,
      "stateMutability": "view",
      "type": "function"
    },
    {
      "constant": true,
      "inputs": [
        {
          "name": "_Name",
          "type": "string"
        }
      ],
      "name": "displayByName",
      "outputs": [
        {
          "name": "",
          "type": "address"
        },
        {
          "name": "",
          "type": "string"
        },
        {
          "name": "",
          "type": "string"
        },
        {
          "name": "",
          "type": "string"
        },
        {
          "name": "",
          "type": "string"
        },
        {
          "name": "",
          "type": "uint8"
        }
      ],
      "payable": false,
      "stateMutability": "view",
      "type": "function"
    },
    {
      "constant": true,
      "inputs": [
        {
          "name": "_hash_id",
          "type": "string"
        }
      ],
      "name": "authFunc",
      "outputs": [
        {
          "name": "",
          "type": "bool"
        }
      ],
      "payable": false,
      "stateMutability": "view",
      "type": "function"
    },
    {
      "constant": false,
      "inputs": [
        {
          "name": "_name",
          "type": "string"
        }
      ],
      "name": "Activate",
      "outputs": [],
      "payable": false,
      "stateMutability": "nonpayable",
      "type": "function"
    },
    {
      "constant": false,
      "inputs": [
        {
          "name": "_name",
          "type": "string"
        }
      ],
      "name": "deActivate",
      "outputs": [],
      "payable": false,
      "stateMutability": "nonpayable",
      "type": "function"
    }
  ],
  "bytecode": "0x60806040526000805534801561001457600080fd5b506128cc806100246000396000f3fe6080604052600436106100b4576000357c0100000000000000000000000000000000000000000000000000000000900480630154de54146100b957806306f22b04146103865780631f3c99c3146105055780632b50c8851461051c5780633a3e8b0d146107c95780633c8197dd146107f857806357d9d5ea146108d8578063670f617f14610b2e5780638f2b872c14610b5d578063a87d942c14610cdc578063aae6fd1914610d07578063db4d265314610dcf575b600080fd5b3480156100c557600080fd5b5061017f600480360360208110156100dc57600080fd5b81019080803590602001906401000000008111156100f957600080fd5b82018360208201111561010b57600080fd5b8035906020019184600183028401116401000000008311171561012d57600080fd5b91908080601f016020809104026020016040519081016040528093929190818152602001838380828437600081840152601f19601f820116905080830192505050505050509192919290505050610e97565b604051808773ffffffffffffffffffffffffffffffffffffffff1673ffffffffffffffffffffffffffffffffffffffff168152602001806020018060200180602001806020018660018111156101d157fe5b60ff16815260200185810385528a818151815260200191508051906020019080838360005b838110156102115780820151818401526020810190506101f6565b50505050905090810190601f16801561023e5780820380516001836020036101000a031916815260200191505b50858103845289818151815260200191508051906020019080838360005b8381101561027757808201518184015260208101905061025c565b50505050905090810190601f1680156102a45780820380516001836020036101000a031916815260200191505b50858103835288818151815260200191508051906020019080838360005b838110156102dd5780820151818401526020810190506102c2565b50505050905090810190601f16801561030a5780820380516001836020036101000a031916815260200191505b50858103825287818151815260200191508051906020019080838360005b83811015610343578082015181840152602081019050610328565b50505050905090810190601f1680156103705780820380516001836020036101000a031916815260200191505b509a505050505050505050505060405180910390f35b34801561039257600080fd5b50610503600480360360608110156103a957600080fd5b81019080803573ffffffffffffffffffffffffffffffffffffffff169060200190929190803590602001906401000000008111156103e657600080fd5b8201836020820111156103f857600080fd5b8035906020019184600183028401116401000000008311171561041a57600080fd5b91908080601f016020809104026020016040519081016040528093929190818152602001838380828437600081840152601f19601f8201169050808301925050505050505091929192908035906020019064010000000081111561047d57600080fd5b82018360208201111561048f57600080fd5b803590602001918460018302840111640100000000831117156104b157600080fd5b91908080601f016020809104026020016040519081016040528093929190818152602001838380828437600081840152601f19601f8201169050808301925050505050505091929192905050506115ca565b005b34801561051157600080fd5b5061051a611838565b005b34801561052857600080fd5b506107c7600480360360a081101561053f57600080fd5b81019080803573ffffffffffffffffffffffffffffffffffffffff1690602001909291908035906020019064010000000081111561057c57600080fd5b82018360208201111561058e57600080fd5b803590602001918460018302840111640100000000831117156105b057600080fd5b91908080601f016020809104026020016040519081016040528093929190818152602001838380828437600081840152601f19601f8201169050808301925050505050505091929192908035906020019064010000000081111561061357600080fd5b82018360208201111561062557600080fd5b8035906020019184600183028401116401000000008311171561064757600080fd5b91908080601f016020809104026020016040519081016040528093929190818152602001838380828437600081840152601f19601f820116905080830192505050505050509192919290803590602001906401000000008111156106aa57600080fd5b8201836020820111156106bc57600080fd5b803590602001918460018302840111640100000000831117156106de57600080fd5b91908080601f016020809104026020016040519081016040528093929190818152602001838380828437600081840152601f19601f8201169050808301925050505050505091929192908035906020019064010000000081111561074157600080fd5b82018360208201111561075357600080fd5b8035906020019184600183028401116401000000008311171561077557600080fd5b91908080601f016020809104026020016040519081016040528093929190818152602001838380828437600081840152601f19601f820116905080830192505050505050509192919290505050611858565b005b3480156107d557600080fd5b506107de611af4565b604051808215151515815260200191505060405180910390f35b34801561080457600080fd5b506108be6004803603602081101561081b57600080fd5b810190808035906020019064010000000081111561083857600080fd5b82018360208201111561084a57600080fd5b8035906020019184600183028401116401000000008311171561086c57600080fd5b91908080601f016020809104026020016040519081016040528093929190818152602001838380828437600081840152601f19601f820116905080830192505050505050509192919290505050611b0e565b604051808215151515815260200191505060405180910390f35b3480156108e457600080fd5b50610927600480360360208110156108fb57600080fd5b81019080803573ffffffffffffffffffffffffffffffffffffffff169060200190929190505050611d5b565b604051808773ffffffffffffffffffffffffffffffffffffffff1673ffffffffffffffffffffffffffffffffffffffff1681526020018060200180602001806020018060200186600181111561097957fe5b60ff16815260200185810385528a818151815260200191508051906020019080838360005b838110156109b957808201518184015260208101905061099e565b50505050905090810190601f1680156109e65780820380516001836020036101000a031916815260200191505b50858103845289818151815260200191508051906020019080838360005b83811015610a1f578082015181840152602081019050610a04565b50505050905090810190601f168015610a4c5780820380516001836020036101000a031916815260200191505b50858103835288818151815260200191508051906020019080838360005b83811015610a85578082015181840152602081019050610a6a565b50505050905090810190601f168015610ab25780820380516001836020036101000a031916815260200191505b50858103825287818151815260200191508051906020019080838360005b83811015610aeb578082015181840152602081019050610ad0565b50505050905090810190601f168015610b185780820380516001836020036101000a031916815260200191505b509a505050505050505050505060405180910390f35b348015610b3a57600080fd5b50610b436121a2565b604051808215151515815260200191505060405180910390f35b348015610b6957600080fd5b50610cda60048036036060811015610b8057600080fd5b81019080803573ffffffffffffffffffffffffffffffffffffffff16906020019092919080359060200190640100000000811115610bbd57600080fd5b820183602082011115610bcf57600080fd5b80359060200191846001830284011164010000000083111715610bf157600080fd5b91908080601f016020809104026020016040519081016040528093929190818152602001838380828437600081840152601f19601f82011690508083019250505050505050919291929080359060200190640100000000811115610c5457600080fd5b820183602082011115610c6657600080fd5b80359060200191846001830284011164010000000083111715610c8857600080fd5b91908080601f016020809104026020016040519081016040528093929190818152602001838380828437600081840152601f19601f8201169050808301925050505050505091929192905050506121bc565b005b348015610ce857600080fd5b50610cf1612274565b6040518082815260200191505060405180910390f35b348015610d1357600080fd5b50610dcd60048036036020811015610d2a57600080fd5b8101908080359060200190640100000000811115610d4757600080fd5b820183602082011115610d5957600080fd5b80359060200191846001830284011164010000000083111715610d7b57600080fd5b91908080601f016020809104026020016040519081016040528093929190818152602001838380828437600081840152601f19601f8201169050808301925050505050505091929192905050506122dd565b005b348015610ddb57600080fd5b50610e9560048036036020811015610df257600080fd5b8101908080359060200190640100000000811115610e0f57600080fd5b820183602082011115610e2157600080fd5b80359060200191846001830284011164010000000083111715610e4357600080fd5b91908080601f016020809104026020016040519081016040528093929190818152602001838380828437600081840152601f19601f82011690508083019250505050505050919291929050505061256c565b005b60006060806060806000600260000160009054906101000a900473ffffffffffffffffffffffffffffffffffffffff1673ffffffffffffffffffffffffffffffffffffffff163373ffffffffffffffffffffffffffffffffffffffff16141515610f0057600080fd5b60008090505b6001805490508110156115bf5760066000600183815481101515610f2657fe5b9060005260206000200160009054906101000a900473ffffffffffffffffffffffffffffffffffffffff1673ffffffffffffffffffffffffffffffffffffffff1673ffffffffffffffffffffffffffffffffffffffff1681526020019081526020016000206000016040516020018082805460018160011615610100020316600290048015610fec5780601f10610fca576101008083540402835291820191610fec565b820191906000526020600020905b815481529060010190602001808311610fd8575b505091505060405160208183030381529060405280519060200120886040516020018082805190602001908083835b602083101515611040578051825260208201915060208101905060208303925061101b565b6001836020036101000a0380198251168184511680821785525050505050509050019150506040516020818303038152906040528051906020012014156115b25760018181548110151561109057fe5b9060005260206000200160009054906101000a900473ffffffffffffffffffffffffffffffffffffffff16600660006001848154811015156110ce57fe5b9060005260206000200160009054906101000a900473ffffffffffffffffffffffffffffffffffffffff1673ffffffffffffffffffffffffffffffffffffffff1673ffffffffffffffffffffffffffffffffffffffff1681526020019081526020016000206000016006600060018581548110151561114957fe5b9060005260206000200160009054906101000a900473ffffffffffffffffffffffffffffffffffffffff1673ffffffffffffffffffffffffffffffffffffffff1673ffffffffffffffffffffffffffffffffffffffff168152602001908152602001600020600101600660006001868154811015156111c457fe5b9060005260206000200160009054906101000a900473ffffffffffffffffffffffffffffffffffffffff1673ffffffffffffffffffffffffffffffffffffffff1673ffffffffffffffffffffffffffffffffffffffff1681526020019081526020016000206002016006600060018781548110151561123f57fe5b9060005260206000200160009054906101000a900473ffffffffffffffffffffffffffffffffffffffff1673ffffffffffffffffffffffffffffffffffffffff1673ffffffffffffffffffffffffffffffffffffffff168152602001908152602001600020600301600660006001888154811015156112ba57fe5b9060005260206000200160009054906101000a900473ffffffffffffffffffffffffffffffffffffffff1673ffffffffffffffffffffffffffffffffffffffff1673ffffffffffffffffffffffffffffffffffffffff16815260200190815260200160002060040160009054906101000a900460ff16848054600181600116156101000203166002900480601f0160208091040260200160405190810160405280929190818152602001828054600181600116156101000203166002900480156113c55780601f1061139a576101008083540402835291602001916113c5565b820191906000526020600020905b8154815290600101906020018083116113a857829003601f168201915b50505050509450838054600181600116156101000203166002900480601f0160208091040260200160405190810160405280929190818152602001828054600181600116156101000203166002900480156114615780601f1061143657610100808354040283529160200191611461565b820191906000526020600020905b81548152906001019060200180831161144457829003601f168201915b50505050509350828054600181600116156101000203166002900480601f0160208091040260200160405190810160405280929190818152602001828054600181600116156101000203166002900480156114fd5780601f106114d2576101008083540402835291602001916114fd565b820191906000526020600020905b8154815290600101906020018083116114e057829003601f168201915b50505050509250818054600181600116156101000203166002900480601f0160208091040260200160405190810160405280929190818152602001828054600181600116156101000203166002900480156115995780601f1061156e57610100808354040283529160200191611599565b820191906000526020600020905b81548152906001019060200180831161157c57829003601f168201915b50505050509150965096509650965096509650506115c1565b8080600101915050610f06565b505b91939550919395565b8273ffffffffffffffffffffffffffffffffffffffff16600260000160009054906101000a900473ffffffffffffffffffffffffffffffffffffffff1673ffffffffffffffffffffffffffffffffffffffff16141561183357816040516020018082805190602001908083835b60208310151561165c5780518252602082019150602081019050602083039250611637565b6001836020036101000a03801982511681845116808217855250505050505090500191505060405160208183030381529060405280519060200120600260010160405160200180828054600181600116156101000203166002900480156116fa5780601f106116d85761010080835404028352918201916116fa565b820191906000526020600020905b8154815290600101906020018083116116e6575b505091505060405160208183030381529060405280519060200120141561183257806040516020018082805190602001908083835b602083101515611754578051825260208201915060208101905060208303925061172f565b6001836020036101000a038019825116818451168082178552505050505050905001915050604051602081830303815290604052805190602001206002800160405160200180828054600181600116156101000203166002900480156117f15780601f106117cf5761010080835404028352918201916117f1565b820191906000526020600020905b8154815290600101906020018083116117dd575b5050915050604051602081830303815290604052805190602001201415611831576001600260030160006101000a81548160ff0219169083151502179055505b5b5b505050565b6000600260030160006101000a81548160ff021916908315150217905550565b600260000160009054906101000a900473ffffffffffffffffffffffffffffffffffffffff1673ffffffffffffffffffffffffffffffffffffffff163373ffffffffffffffffffffffffffffffffffffffff161415156118b757600080fd5b60018590806001815401808255809150509060018203906000526020600020016000909192909190916101000a81548173ffffffffffffffffffffffffffffffffffffffff021916908373ffffffffffffffffffffffffffffffffffffffff1602179055505083600660008773ffffffffffffffffffffffffffffffffffffffff1673ffffffffffffffffffffffffffffffffffffffff16815260200190815260200160002060000190805190602001906119739291906127fb565b5082600660008773ffffffffffffffffffffffffffffffffffffffff1673ffffffffffffffffffffffffffffffffffffffff16815260200190815260200160002060010190805190602001906119ca9291906127fb565b5081600660008773ffffffffffffffffffffffffffffffffffffffff1673ffffffffffffffffffffffffffffffffffffffff1681526020019081526020016000206002019080519060200190611a219291906127fb565b5080600660008773ffffffffffffffffffffffffffffffffffffffff1673ffffffffffffffffffffffffffffffffffffffff1681526020019081526020016000206003019080519060200190611a789291906127fb565b506000600660008773ffffffffffffffffffffffffffffffffffffffff1673ffffffffffffffffffffffffffffffffffffffff16815260200190815260200160002060040160006101000a81548160ff02191690836001811115611ad857fe5b0217905550600160008082825401925050819055505050505050565b6000600260030160009054906101000a900460ff16905090565b600080600090505b600180549050811015611d505760066000600183815481101515611b3657fe5b9060005260206000200160009054906101000a900473ffffffffffffffffffffffffffffffffffffffff1673ffffffffffffffffffffffffffffffffffffffff1673ffffffffffffffffffffffffffffffffffffffff1681526020019081526020016000206001016040516020018082805460018160011615610100020316600290048015611bfc5780601f10611bda576101008083540402835291820191611bfc565b820191906000526020600020905b815481529060010190602001808311611be8575b505091505060405160208183030381529060405280519060200120836040516020018082805190602001908083835b602083101515611c505780518252602082019150602081019050602083039250611c2b565b6001836020036101000a038019825116818451168082178552505050505050905001915050604051602081830303815290604052805190602001201415611d435760006001811115611c9e57fe5b60066000600184815481101515611cb157fe5b9060005260206000200160009054906101000a900473ffffffffffffffffffffffffffffffffffffffff1673ffffffffffffffffffffffffffffffffffffffff1673ffffffffffffffffffffffffffffffffffffffff16815260200190815260200160002060040160009054906101000a900460ff166001811115611d3257fe5b1415611d42576001915050611d56565b5b8080600101915050611b16565b50600090505b919050565b60006060806060806000600260000160009054906101000a900473ffffffffffffffffffffffffffffffffffffffff1673ffffffffffffffffffffffffffffffffffffffff163373ffffffffffffffffffffffffffffffffffffffff16141515611dc457600080fd5b86600660008973ffffffffffffffffffffffffffffffffffffffff1673ffffffffffffffffffffffffffffffffffffffff168152602001908152602001600020600001600660008a73ffffffffffffffffffffffffffffffffffffffff1673ffffffffffffffffffffffffffffffffffffffff168152602001908152602001600020600101600660008b73ffffffffffffffffffffffffffffffffffffffff1673ffffffffffffffffffffffffffffffffffffffff168152602001908152602001600020600201600660008c73ffffffffffffffffffffffffffffffffffffffff1673ffffffffffffffffffffffffffffffffffffffff168152602001908152602001600020600301600660008d73ffffffffffffffffffffffffffffffffffffffff1673ffffffffffffffffffffffffffffffffffffffff16815260200190815260200160002060040160009054906101000a900460ff16848054600181600116156101000203166002900480601f016020809104026020016040519081016040528092919081815260200182805460018160011615610100020316600290048015611fb25780601f10611f8757610100808354040283529160200191611fb2565b820191906000526020600020905b815481529060010190602001808311611f9557829003601f168201915b50505050509450838054600181600116156101000203166002900480601f01602080910402602001604051908101604052809291908181526020018280546001816001161561010002031660029004801561204e5780601f106120235761010080835404028352916020019161204e565b820191906000526020600020905b81548152906001019060200180831161203157829003601f168201915b50505050509350828054600181600116156101000203166002900480601f0160208091040260200160405190810160405280929190818152602001828054600181600116156101000203166002900480156120ea5780601f106120bf576101008083540402835291602001916120ea565b820191906000526020600020905b8154815290600101906020018083116120cd57829003601f168201915b50505050509250818054600181600116156101000203166002900480601f0160208091040260200160405190810160405280929190818152602001828054600181600116156101000203166002900480156121865780601f1061215b57610100808354040283529160200191612186565b820191906000526020600020905b81548152906001019060200180831161216957829003601f168201915b5050505050915095509550955095509550955091939550919395565b6000600260030160019054906101000a900460ff16905090565b82600260000160006101000a81548173ffffffffffffffffffffffffffffffffffffffff021916908373ffffffffffffffffffffffffffffffffffffffff16021790555081600260010190805190602001906122199291906127fb565b50806002800190805190602001906122329291906127fb565b506001600260030160016101000a81548160ff0219169083151502179055506000600260030160006101000a81548160ff021916908315150217905550505050565b6000600260000160009054906101000a900473ffffffffffffffffffffffffffffffffffffffff1673ffffffffffffffffffffffffffffffffffffffff163373ffffffffffffffffffffffffffffffffffffffff161415156122d557600080fd5b600054905090565b600260000160009054906101000a900473ffffffffffffffffffffffffffffffffffffffff1673ffffffffffffffffffffffffffffffffffffffff163373ffffffffffffffffffffffffffffffffffffffff1614151561233c57600080fd5b60008090505b600180549050811015612568576006600060018381548110151561236257fe5b9060005260206000200160009054906101000a900473ffffffffffffffffffffffffffffffffffffffff1673ffffffffffffffffffffffffffffffffffffffff1673ffffffffffffffffffffffffffffffffffffffff16815260200190815260200160002060000160405160200180828054600181600116156101000203166002900480156124285780601f10612406576101008083540402835291820191612428565b820191906000526020600020905b815481529060010190602001808311612414575b505091505060405160208183030381529060405280519060200120826040516020018082805190602001908083835b60208310151561247c5780518252602082019150602081019050602083039250612457565b6001836020036101000a03801982511681845116808217855250505050505090500191505060405160208183030381529060405280519060200120141561255b576001600660006001848154811015156124d257fe5b9060005260206000200160009054906101000a900473ffffffffffffffffffffffffffffffffffffffff1673ffffffffffffffffffffffffffffffffffffffff1673ffffffffffffffffffffffffffffffffffffffff16815260200190815260200160002060040160006101000a81548160ff0219169083600181111561255557fe5b02179055505b8080600101915050612342565b5050565b600260000160009054906101000a900473ffffffffffffffffffffffffffffffffffffffff1673ffffffffffffffffffffffffffffffffffffffff163373ffffffffffffffffffffffffffffffffffffffff161415156125cb57600080fd5b60008090505b6001805490508110156127f757600660006001838154811015156125f157fe5b9060005260206000200160009054906101000a900473ffffffffffffffffffffffffffffffffffffffff1673ffffffffffffffffffffffffffffffffffffffff1673ffffffffffffffffffffffffffffffffffffffff16815260200190815260200160002060000160405160200180828054600181600116156101000203166002900480156126b75780601f106126955761010080835404028352918201916126b7565b820191906000526020600020905b8154815290600101906020018083116126a3575b505091505060405160208183030381529060405280519060200120826040516020018082805190602001908083835b60208310151561270b57805182526020820191506020810190506020830392506126e6565b6001836020036101000a0380198251168184511680821785525050505050509050019150506040516020818303038152906040528051906020012014156127ea5760006006600060018481548110151561276157fe5b9060005260206000200160009054906101000a900473ffffffffffffffffffffffffffffffffffffffff1673ffffffffffffffffffffffffffffffffffffffff1673ffffffffffffffffffffffffffffffffffffffff16815260200190815260200160002060040160006101000a81548160ff021916908360018111156127e457fe5b02179055505b80806001019150506125d1565b5050565b828054600181600116156101000203166002900490600052602060002090601f016020900481019282601f1061283c57805160ff191683800117855561286a565b8280016001018555821561286a579182015b8281111561286957825182559160200191906001019061284e565b5b509050612877919061287b565b5090565b61289d91905b80821115612899576000816000905550600101612881565b5090565b9056fea165627a7a72305820806cff370ed130c60242a8828fa87c1b14e962072b0ce620bbb7dce6775fe08e0029",
  "source": "pragma solidity ^0.5.1;\n\ncontract BlockChanger{\n    enum State {ACTIVE , DOWN} //Define the device state on the network (defined by the admin)\n    uint  deviceCount = 0;\n    address [] signed_addresses; // all used addresses are stored here\n\n    struct admin {\n        address addr;\n        string username;\n        string password;\n        bool isAdminLoggedIn;\n        bool isAdded;\n    }\n    admin adminInfo;\n\n    function pushAdminInfo (address _address, string memory _username, string memory _password) public \n    {   \n        adminInfo.addr = _address;\n        adminInfo.username = _username; \n        adminInfo.password = _password;\n        adminInfo.isAdded = true;\n        adminInfo.isAdminLoggedIn = false;\n    }\n\n    function checkIsAdded() public view returns (bool)\n    {\n        return adminInfo.isAdded;\n    }\n\n    // function testAdminInfo () public view returns (address, string memory, string memory, bool, bool) \n    // {\n    //     return (adminInfo.addr,adminInfo.username, adminInfo.password, adminInfo.isAdminLoggedIn, adminInfo.isAdded);\n    // }\n\n\n    function loginUser(address _address, string memory _username, string memory _password) public   //chek for admin users\n    {\n        if (adminInfo.addr == _address)\n        {\n            if (keccak256(abi.encodePacked(adminInfo.username)) == keccak256(abi.encodePacked(_username)))\n            {\n                if (keccak256(abi.encodePacked(adminInfo.password)) == keccak256(abi.encodePacked(_password))) \n                {\n                    adminInfo.isAdminLoggedIn = true;\n                } \n                \n            }\n        }\n    }\n\n    function checkAdminIsLoggedIn() public view returns (bool)\n    {\n        return adminInfo.isAdminLoggedIn;\n    }\n\n    function logout() public\n    {\n        adminInfo.isAdminLoggedIn = false;\n    }\n\n    modifier onlyAdmin() \n    {\n        require(msg.sender == adminInfo.addr);\n        _;\n    }\n\n    struct Device_Info\n    {\n        string name;\n        string hash_id;\n        string ip;\n        string mac;\n        State device_state;\n    }\n    mapping (address => Device_Info) device;\n\n\n    function add_device (address _addr, string memory _name, string memory _hash_id, string memory _ip, string memory _mac) public onlyAdmin\n    {\n        signed_addresses.push(_addr);\n        device[_addr].name = _name;\n        device[_addr].hash_id = _hash_id;\n        device[_addr].ip = _ip;\n        device[_addr].mac = _mac;\n        device[_addr].device_state = State.ACTIVE;\n        deviceCount += 1;\n    }\n\n    function getCount () public onlyAdmin view returns (uint)\n    {\n        return deviceCount;\n    }\n    \n    function displayInfo(address _addr) public onlyAdmin view returns (address, string memory , string memory, string memory, string memory, State) // by address\n    {\n        return(_addr, device[_addr].name, device[_addr].hash_id, device[_addr].ip, device[_addr].mac, device[_addr].device_state);\n    }\n\n    function displayByName(string memory _Name ) public onlyAdmin view returns (address, string memory , string memory, string memory, string memory ,State) //by name\n    {\n        for (uint i = 0; i < signed_addresses.length ; i++)\n        {\n            if (keccak256(abi.encodePacked(_Name)) == keccak256(abi.encodePacked(device[signed_addresses[i]].name)))\n            {\n                return(signed_addresses[i], device[signed_addresses[i]].name, device[signed_addresses[i]].hash_id, device[signed_addresses[i]].ip, device[signed_addresses[i]].mac, device[signed_addresses[i]].device_state); \n            }\n        }\n        \n    }\n\n    function authFunc (string memory _hash_id) public view returns (bool)  \n    {\n        for (uint i = 0; i < signed_addresses.length ; i++)\n        {\n            if (keccak256(abi.encodePacked(_hash_id)) == keccak256(abi.encodePacked(device[signed_addresses[i]].hash_id)))\n            {\n                if(device[signed_addresses[i]].device_state == State.ACTIVE)\n                {\n                    return true;\n                }\n            }\n        }\n        return false;     \n    }   \n\n\n    function Activate (string memory _name) public onlyAdmin\n    {\n        for (uint i = 0; i < signed_addresses.length ; i++)\n        {\n            if (keccak256(abi.encodePacked(_name)) == keccak256(abi.encodePacked(device[signed_addresses[i]].name)))\n            {\n                device[signed_addresses[i]].device_state = State.ACTIVE;\n            }\n        }\n    }\n\n    function deActivate (string memory _name) public onlyAdmin\n    {\n        for (uint i = 0; i < signed_addresses.length ; i++)\n        {\n            if (keccak256(abi.encodePacked(_name)) == keccak256(abi.encodePacked(device[signed_addresses[i]].name)))\n            {\n                device[signed_addresses[i]].device_state = State.DOWN;\n            }\n        }\n    }\n\n}",
  "sourcePath": "/home/blockchanger/project-files-project-files-ganache/smart contract/contracts/BlockChanger.sol",
  "compiler": {
    "name": "solc",
    "version": "0.5.1+commit.c8a2cb62.Emscripten.clang"
  },
  "schemaVersion": "3.4.7",
  "updatedAt": "2022-06-21T17:59:14.186Z",
  "networkType": "ethereum",
  "devdoc": {
    "methods": {}
  },
  "userdoc": {
    "methods": {}
  }
}